:030000000200BD3E
:0C00BD00787FE4F6D8FD75812002010474
:0501A100010978C10016
:10000300759850438E40538EFE53890F758BE07560
:0B0013008DFEC2ABD28ED2ACD2AF2269
:0D0181005393F85394F8D280D281D2822299
:080199008F993099FDC29922F3
:0300230002018E49
:0B018E00309807859909C298D2003212
:10002600EF12014900854100494200714700994C91
:10003600005D52008F61005362007B6700677200AB
:100046000000B9C280D281D2827F428066D280D23D
:1000560081D2827F62805CD280C281D2827F5280CE
:1000660052D280D281D2827F728048D280D281C21F
:10007600827F47803ED280D281D2827F678034C21F
:1000860080C281C2827F41802AD280D281D2827F81
:10009600618020AE087401A806088002C333D8FC2C
:1000A600F4F5800508E508D394024003E4F5087FDB
:0700B6004C800012019922A9
:10016F001201811200033000FDC200AF09120026F8
:02017F0080F40A
:1000C90002016FE493A3F8E493A34003F68001F2DD
:1000D90008DFF48029E493A3F85407240CC8C33338
:1000E900C4540F4420C8834004F456800146F6DF07
:1000F900E4800B01020408102040809001A1E47EF5
:10010900019360BCA3FF543F30E509541FFEE493FB
:10011900A360010ECF54C025E060A840B8E493A3C2
:10012900FAE493A3F8E493A3C8C582C8CAC583CAED
:10013900F0A3C8C582C8CAC583CADFE9DEE780BEA5
:0101A6000058
:10014900D083D082F8E4937012740193700DA3A345
:1001590093F8740193F5828883E473740293686059
:06016900EFA3A3A380DF59
:00000001FF
