:0300000002000EED
:0C000E00787FE4F6D8FD758109020055EA
:0300F600010800FE
:1000DA00538E7F5389F0E4F58A758C4CC28DD28C8D
:0500EA00D2AFD2A922F3
:0700EF005393F85394F8222B
:03000B0002009A56
:10009A00C0E0C0D075D000C000C007758C4C758A0E
:1000AA00000508E508B40A1F750800AF097401A81D
:1000BA0007088002C333D8FCF4F5800509E509D3A3
:1000CA0094024003750900D007D000D0D0D0E032A6
:080003001200EF1200DA80FE8A
:10001A00020003E493A3F8E493A34003F68001F2F9
:10002A0008DFF48029E493A3F85407240CC8C333E7
:10003A00C4540F4420C8834004F456800146F6DFB6
:10004A00E4800B01020408102040809000F6E47E50
:10005A00019360BCA3FF543F30E509541FFEE493AB
:10006A00A360010ECF54C025E060A840B8E493A372
:10007A00FAE493A3F8E493A3C8C582C8CAC583CA9D
:10008A00F0A3C8C582C8CAC583CADFE9DEE780BE55
:0100F9000006
:00000001FF
