:0300000002000EED
:0C000E00787FE4F6D8FD758120020055D3
:0900FF00C18002080000010A00A2
:1000DF00438E805389F0758ACD758CD4C28DD28CA6
:0500EF00D2AFD2A922EE
:06000300E4F594F59322E0
:10009A00A2B29201200108300005E4F508F5092012
:1000AA00011A0509E50970020508C394E8E50894F0
:1000BA00034009E50A64026003750A02300111204F
:1000CA00000EC3E50994E8E50894035003750A0194
:0500DA00A201920022CA
:0100090022D4
:03000B0002000AE6
:01000A0032C3
:0B00F4001200031200DF12000980FB65
:10001A000200F4E493A3F8E493A34003F68001F208
:10002A0008DFF48029E493A3F85407240CC8C333E7
:10003A00C4540F4420C8834004F456800146F6DFB6
:10004A00E4800B01020408102040809000FFE47E47
:10005A00019360BCA3FF543F30E509541FFEE493AB
:10006A00A360010ECF54C025E060A840B8E493A372
:10007A00FAE493A3F8E493A3C8C582C8CAC583CA9D
:10008A00F0A3C8C582C8CAC583CADFE9DEE780BE55
:0101080000F6
:00000001FF
