:03000000020006F5
:0C000600787FE4F6D8FD75812002004DE3
:0500E100C10001080050
:1000C200759407E4F593F5B2F5B1D288D2A8D2AF10
:0100D200220B
:030003000200DB1D
:0600DB00D20030B2FD323C
:1000920030002C0508E508D394024003E4F508D2A9
:1000A20080D281D282E5087004C2808010E508B453
:1000B2000104C2818007E508B40202C282C20022A2
:0300E70002009282
:0800D3001200C21200E780FBDD
:100012000200D3E493A3F8E493A34003F68001F231
:1000220008DFF48029E493A3F85407240CC8C333EF
:10003200C4540F4420C8834004F456800146F6DFBE
:10004200E4800B01020408102040809000E1E47E6D
:10005200019360BCA3FF543F30E509541FFEE493B3
:10006200A360010ECF54C025E060A840B8E493A37A
:10007200FAE493A3F8E493A3C8C582C8CAC583CAA5
:10008200F0A3C8C582C8CAC583CADFE9DEE780BE5D
:0100E6000019
:00000001FF
