:03000000020003F8
:0C000300787FE4F6D8FD75812002004AE9
:0200EC00C10051
:0E00C80000007F017ED87D23DDFEDEFCDFFA26
:0100D6002207
:0700DF005393F85394F8223B
:1000B10020B2081200C820B202D20020B3081200F8
:0700C100C820B302D20022A7
:10008F0030001EC200AF087401A807088002C333F6
:10009F00D8FCF4F5800508E508D394024003E4F595
:0200AF00082225
:0600E6001200B102008FC0
:0800D7001200DF1200E680FBBD
:10000F000200D7E493A3F8E493A34003F68001F230
:10001F0008DFF48029E493A3F85407240CC8C333F2
:10002F00C4540F4420C8834004F456800146F6DFC1
:10003F00E4800B01020408102040809000ECE47E65
:10004F00019360BCA3FF543F30E509541FFEE493B6
:10005F00A360010ECF54C025E060A840B8E493A37D
:10006F00FAE493A3F8E493A3C8C582C8CAC583CAA8
:10007F00F0A3C8C582C8CAC583CADFE9DEE780BE60
:0100EE000011
:00000001FF
